:100000000C94D2000C94FA000C94FA000C94FA00B0
:100010000C94FA000C94FA000C94FA000C94FA0078
:100020000C94FA000C94FA000C94E2080C94510918
:100030000C94FA000C94FA000C94FA000C94FA0058
:100040000C94FA000C94FA000C94FA000C94FA0048
:100050000C94FA000C94FA000C94FA000C94980892
:100060000C94FA000C94FA000C94FA000C94FA0028
:100070000C94FA000C94FA000C94FA000C94FA0018
:100080000C94FA000C94FA000C94FA000C94FA0008
:100090000C9479070C94FA000C94FA000C94FA0072
:1000A0000C94FA000C94FA000C94FA00070605046C
:1000B0000100080A0B0C0D09080B000202020100E6
:1000C00009040000010202000005240010010524BB
:1000D000010101042402060524060001070581032D
:1000E00010004009040100020A0000000705020296
:1000F00040000007058302400000040309041201C8
:100100000002EF020140412341800001010203018E
:1001100041726475696E6F204C4C43004172647586
:10012000696E6F2059756E000000000024002700E2
:100130002A002D00300000000000250028002B00C0
:100140002E00310004040404040304050202020228
:100150000403020202020606060606060404020260
:100160000204040408020110408040102040804036
:1001700080080204018040201002011080102040FD
:1001800040200000000200090F0000030401000CE1
:10019000000000000000000000000000000000005F
:1001A0000000830B11241FBECFEFDAE0DEBFCDBF0E
:1001B00011E0A0E0B1E0E8EEF0E202C005900D929F
:1001C000A836B107D9F722E0A8E6B1E001C01D9238
:1001D000A73AB207E1F710E0C2EDD0E004C02197E2
:1001E000FE010E945810C13DD107C9F70E94B30B10
:1001F0000C9472100C940000FC0180913E02882344
:1002000011F13FB7F89482E08093E9002091F20069
:10021000822F90E01816190614F481E090E08823EC
:1002200039F0289844E640933D024091F100408324
:10023000222339F02091F200211103C02BE62093F4
:10024000E8003FBF08958FEF9FEF08952FB7F89410
:1002500083E08093E9009091E800892F807295FFF8
:1002600004C09091F20080E4891B2FBF0895809113
:10027000350281110DC082E08093310284E08093C9
:100280003202109234021092330281E080933502E0
:1002900081E392E0089585ED8093BC008091BC00DD
:1002A00084FDFCCF10920B0208952091E501260FEA
:1002B0003327331F21323105ECF420910B02FC016E
:1002C00090E080E0243069F082E00895A091E5019B
:1002D0002191AC014D535E4FA40FB52FB11D2C934E
:1002E0000196861798F38091E501680F6093E50108
:1002F00080E0089581E00895089508950895E091BB
:10030000C0018091BF01E81730F4F0E0E156FE4FE4
:10031000808190E008958FEF9FEF08959091C00144
:100320008091BF012FEF3FEF981748F4E92FF0E0DD
:10033000E156FE4F208130E09F5F9093C001C901DC
:1003400008958091BF019091C001891B990B089578
:10035000CF92DF92EF92FF920F931F93CF93DF9391
:100360007C01CB018A0120919E01222389F0EB01BF
:100370006B01C40ED51ECC15DD0569F06991D7015E
:10038000ED91FC910190F081E02DC7010995F3CF2B
:10039000642F0E945501C801DF91CF911F910F91E9
:1003A000FF90EF90DF90CF900895CF93DF931F924F
:1003B000CDB7DEB7698320919E012223F9F0209109
:1003C000C101203258F021E030E0FC013383228368
:1003D00090E080E00F90DF91CF9108958091C2016D
:1003E000E82FF0E0E258FE4F998190838F5F809371
:1003F000C2018093C10181E090E0ECCF61E0CE01C9
:1004000001960E945501F7CF282F30E0F901EE57F1
:10041000FE4F9491F901ED59FE4F84912C5B3E4FB4
:10042000F9012491222309F430C09923E9F0915075
:100430009F30D0F4E92FF0E0E05EFD4F0C945810AF
:100440004E0252022F0246024A02340234023402A1
:1004500055025B025F026302690234026D029091F1
:1004600080009F7790938000E22FF0E0EE0FFF1F57
:10047000EA5CFE4FA591B4919FB7F894EC9161119D
:1004800032C080958E238C939FBF089590918000F9
:100490009F7DE8CF90918000977FE4CF94B59F77C0
:1004A00094BDE2CF94B59F7DFBCF909190009F7754
:1004B00090939000D9CF909190009F7DF9CF90912B
:1004C0009000977FF5CF9091C0009F779093C000E8
:1004D000CBCF9091C0009F7DF9CF9091C200977FC4
:1004E0009093C200C1CF8E2BCECFCF93DF9390E0FD
:1004F000FC01ED59FE4F24918C5B9E4FFC018491D1
:100500008823D1F090E0880F991FFC01E85DFE4F31
:10051000A591B491FC01EA5CFE4FC591D4916111A3
:100520000EC09FB7F8948C91E22FE0958E238C93A8
:100530002881E223E8839FBFDF91CF9108958FB791
:10054000F894EC91E22BEC938FBFF6CF3FB7F89481
:1005500080917A0190917B01A0917C01B0917D0105
:1005600026B5A89B05C02F3F19F00196A11DB11D0E
:100570003FBFBA2FA92F982F8827BC01CD01620F4A
:10058000711D811D911D42E0660F771F881F991F05
:100590004A95D1F708958F929F92AF92BF92CF92D2
:1005A000DF92EF92FF924B015C010E94A6026B0169
:1005B0007C010E94A6026C197D098E099F09683E84
:1005C000734081059105A8F321E0821A9108A108E2
:1005D000B10888EEC80E83E0D81EE11CF11C81141E
:1005E0009104A104B10429F7FF90EF90DF90CF9020
:1005F000BF90AF909F908F90089540916F01509160
:10060000700120916D0130916E0142175307B4F4CF
:100610009091E8009570E1F39091E80092FD19C087
:100620008093F10080916F019091700101968F731A
:100630009927892B19F48EEF8093E80080916F0140
:100640009091700101969093700180936F0181E009
:10065000089580E00895EF92FF920F931F93CF9338
:10066000DF93F82E192FE62E042F81E0860F880FD6
:100670000E94FD0283E00E94FD02CF2DD12FEC0EDF
:10068000FD2EF11CCE15DF05B9F007FF13C0FE01EA
:1006900084910E94FD02182F80E00E94FD028123B8
:1006A00021968111EFCFDF91CF911F910F91FF9094
:1006B000EF9008958881EDCF81E0F5CFDF92EF9242
:1006C000FF920F931F93CF93DF93D82E8A01EB01F4
:1006D0007B01E40EF51ECE15DF0559F0D7FE12C0E2
:1006E000FE0184910E94FD0221968111F4CF0FEF4B
:1006F0001FEFC801DF91CF911F910F91FF90EF90F5
:10070000DF9008958881EECF0F931F93CF93DF93EF
:100710001F92CDB7DEB782E0898342E450E068EBF8
:1007200070E080E80E945E030E943701DC011296AF
:100730000D911C910115110589F0D801ED91FC91E5
:100740000280F381E02DBE016F5F7F4FC8010995E4
:1007500097FD04C0F80100851185ECCF89810F90C9
:10076000DF91CF911F910F910895615030F020914A
:10077000F100FC0120830196F8CF289884E680934D
:100780003D020895AF92BF92CF92DF92EF92FF9217
:100790000F931F93CF93DF936C017B018B01040FA9
:1007A000151FEB015E01AE18BF08C017D10759F045
:1007B0006991D601ED91FC910190F081E02DC60187
:1007C0000995892B79F7C501DF91CF911F910F9181
:1007D000FF90EF90DF90CF90BF90AF9008958F92F1
:1007E0009F92AF92BF92CF92DF92EF92FF920F93C0
:1007F0001F93CF93DF936C017B018A0180910B01E2
:10080000882309F45CC080913E02882309F457C014
:100810008091730180FF05C08091E0008260809329
:10082000E000E801B12C8AEFA82E93E0892E2AE39C
:10083000922E209711F4BB20D9F10E94260181113C
:100840000AC0AA94AA20D9F161E070E080E090E0AB
:100850000E94CB02EECF8C171D0611F00CF08C2FEE
:100860009FB7F8948092E9002091E80025FD02C02E
:100870009FBFDFCF282F30E0C21BD30BF701815081
:1008800020F041914093F100FACFE20EF31EBB201D
:1008900021F09092E800B12CEBCF8091E80085FD2B
:1008A000E7CF9092E800BB24B394209709F3F3CFED
:1008B0005D9884E680937401101611063CF081E087
:1008C00090E0F6019383828310E000E0C801DF919D
:1008D000CF911F910F91FF90EF90DF90CF90BF903D
:1008E000AF909F908F900895CF93DF931F92CDB7D5
:1008F000DEB76983DC01ED91FC910280F381E02D8C
:1009000041E050E0BE016F5F7F4F09950F90DF918E
:10091000CF91089583E08093E9008091F2008823CD
:1009200019F08AE38093E80008950E94260190E080
:100930000895CF93DF931F92CDB7DEB7FC01848576
:10094000958597FD08C02FEF3FEF358724870F90DF
:10095000DF91CF910895CE0101960E94FC0001978E
:1009600019F4898190E0F3CF8FEF9FEFF0CF0F93D1
:100970001F93CF93DF931F92CDB7DEB78C01FC019D
:100980008485958597FF0BC0CE0101960E94FC00DF
:10099000019771F4898190E0F80195878487F801C7
:1009A000848595850F90DF91CF911F910F910895C8
:1009B0008FEF9FEFF1CFFC018485958597FD0BC0EC
:1009C0009FB7F89482E08093E9008091F2009FBF86
:1009D00090E0019608959FB7F89482E08093E90033
:1009E0008091F2009FBF90E00895CF93FC01C481F5
:1009F00021E020939E01C09368011092C2011092E1
:100A0000C1018385682B8FE392E00E94D50190910C
:100A1000C101913208F03FC080910B028111FCCFDF
:100A200082E080930B0281E080930D028FEF809330
:100A30000A0210922F0290932E02AEE7B1E0EEE090
:100A4000F2E080E098132FC01092300280913002C3
:100A5000CC0FC82BC093300280910C02813039F545
:100A600010920C02809130028093BB008091BC00F8
:100A700083FDF8CF85EC8093BC0080910B0282301F
:100A8000E1F380910A028F3F31F080910A028032B7
:100A900011F080910A021092C2011092C1011092CD
:100AA0009E01CF9108952D9121938F5FCBCF85EE3D
:100AB000E2CF089590E080E00895FB0101900020CE
:100AC000E9F73197AF01461B570BDC01ED91FC9123
:100AD0000280F381E02D09948F929F92AF92BF9292
:100AE000EF92FF920F931F93CF93DF93CDB7DEB7B3
:100AF000A1970FB6F894DEBF0FBECDBF7C01FA01FF
:100B0000CB0119A2223008F42AE08E010F5D1F4F9D
:100B1000822E912CB12CA12CBF01A50194010E9421
:100B20003610F901CA016A300CF5605DD8016E9388
:100B30008D01232B242B252B79F790E080E0109753
:100B400021F0BD01C7010E945D05A1960FB6F89482
:100B5000DEBF0FBECDBFDF91CF911F910F91FF90F0
:100B6000EF90BF90AF909F908F900895695CDECF1B
:100B70002F923F924F925F926F927F928F929F92AD
:100B8000AF92BF92CF92DF92EF92FF921F93CF93DB
:100B9000DF93EC016A017B01722EAB019601CB0160
:100BA000B6010E941D106BE471E0811126C0460160
:100BB0005701E894B7F82FEF3FEF4FE75FE7C50124
:100BC000B4010E941D1081110CC02FEF3FEF4FE7C1
:100BD0005FE7C501B4010E944C0E6FE471E0181686
:100BE00064F02FEF3FEF4FE75FE4C701B6010E94CB
:100BF000AB0F1816B4F463E571E0CE01DF91CF912D
:100C00001F91FF90EF90DF90CF90BF90AF909F909B
:100C10008F907F906F905F904F903F902F900C94AB
:100C20005D052FEF3FEF4FE75FECC701B6010E9474
:100C30004C0E87FDE0CF20E030E0A901C701B601EE
:100C40000E944C0E312C212C87FF0DC0E881F981C8
:100C50000190F081E02D6DE2CE0109951C01F7FABB
:100C6000F094F7F8F09410E060E070E080E09FE32B
:100C7000711641F020E030E040E251E40E94510E54
:100C80001F5FF6CFA70196010E94E00D2B013C01EA
:100C90000E94CA0E4B015C012AE0BC01A401CE01F6
:100CA0000E946C057C01E20CF31C1123E1F1C501EB
:100CB000B4010E94F90E9B01AC01C301B2010E9474
:100CC000DF0D4B015C01E881F9810190F081E02D9D
:100CD0006EE2CE010995E80EF91E115020F120E0D8
:100CE00030E040E251E4C501B4010E94B00F2B0195
:100CF0003C010E94CA0E4B01B12CA12C2AE0B50187
:100D0000A401CE010E946C05E80EF91EC501B401D4
:100D10000E94F90E9B01AC01C301B2010E94DF0DDC
:100D20004B015C01DACFC701DF91CF911F91FF909A
:100D3000EF90DF90CF90BF90AF909F908F907F907B
:100D40006F905F904F903F902F9008950F931F9357
:100D5000CF938C01C62F0E94F5046C2F6460C801EC
:100D60000E94F5046C2F6B7FC8010E94F50483EC90
:100D700090E00197F1F7CF911F910F9108950F9394
:100D80001F93CF93DF938C01D62FC42F607F642BEA
:100D90000E94A60680E1D89FB00111246C2BC801E7
:100DA000DF91CF911F910F910C94A606CF93DF9303
:100DB000CDB7DEB728970FB6F894DEBF0FBECDBF14
:100DC00098E0ECE0F1E0DE01119601900D929A9529
:100DD000E1F79091A302981708F48FEF90E0880F45
:100DE000991F21E030E02C0F3D1F820F931FFC0163
:100DF0006081606840E08BE992E028960FB6F89435
:100E0000DEBF0FBECDBFDF91CF910C94BF06CF9355
:100E1000DF93823028F09091A00298609093A00216
:100E20008093A30262E370E080E090E00E94CB0236
:100E30006091A6028BE992E00E94F50468EE73E0EF
:100E400080E090E00E94CB0260E38BE992E00E9498
:100E5000A606CBE4D6E4CE010197F1F760E38BE977
:100E600092E00E94A6062197F1F760E38BE992E0F9
:100E70000E94A60683E592E00197F1F760E28BE914
:100E800092E00E94A6066091A002606240E08BE9B9
:100E900092E00E94BF0684E08093A10240E06CE0F3
:100EA0008BE992E00E94BF0640E061E08BE992E0AE
:100EB0000E94BF06CBE3DFE1CE010197F1F782E0AC
:100EC0008093A20240E066E08BE992E00E94BF06B8
:100ED00040E062E08BE992E00E94BF062197F1F7C3
:100EE000DF91CF91089541E00E94BF0690E080E03D
:100EF00008951F920F920FB60F9211242F933F93D4
:100F00004F935F936F937F938F939F93AF93BF9311
:100F1000EF93FF938091B900887F803609F44AC02F
:100F2000F0F5883209F4A7C018F5803109F49BC0A8
:100F3000B8F4882309F4F9C0883009F494C0FF910B
:100F4000EF91BF91AF919F918F917F916F915F9141
:100F50004F913F912F910F900FBE0F901F901895BA
:100F6000883109F488C0803251F780930A0214C096
:100F7000803409F49DC040F48033B9F38833F9F626
:100F800080930A0285ECB0C0803509F485C08835AD
:100F900009F496C0883499F60E944B01D0CF883965
:100FA00009F48CC038F5883729F050F4883611F0F0
:100FB000803729F683E080930B021092090257C014
:100FC000883809F47BC0803919F0803809F0B7CF30
:100FD00080910902803208F071C0E091090281E03D
:100FE0008E0F809309028091BB00F0E0E751FE4F25
:100FF00080833DC0803B39F0E0F4803A09F479C049
:10100000883A09F09CCF84E080930B021092E601AD
:101010001092E501E091E301F091E40109958091DE
:10102000E50181110FC081E08093E5011092C301B9
:1010300009C0803C09F4A6CF883C09F4A3CF883BC3
:1010400009F07DCFE091E60181E08E0F8093E6010B
:10105000F0E0ED53FE4F80818093BB009091E6015C
:101060008091E50129C0809130028093BB0085EC1E
:101070008093BC0064CF90912F0280912E0298172C
:1010800058F5E0912F0281E08E0F80932F02F0E05F
:10109000E25FFD4F8081E9CFE0912F0281E08E0F6A
:1010A00080932F028091BB00F0E0E25FFD4F8083D0
:1010B00090912F0280912E029817C8F285E8D8CF20
:1010C000E0912F0281E08E0F80932F028091BB0070
:1010D000F0E0E25FFD4F808380910D0281115CCFD3
:1010E00081E080930C0284EA8093BC0010920B0292
:1010F00026CF85EC8093BC0010920B0280910902F0
:10110000803230F4E0910902F0E0E751FE4F1082A6
:101110006091090270E0E091E701F091E80189EE49
:1011200091E00995109209020ACF10920A0234CF79
:101130001F920F920FB60F9211242F933F938F930C
:101140009F93AF93BF938091760190917701A09187
:101150007801B09179013091750123E0230F2D378B
:1011600058F50196A11DB11D20937501809376015C
:1011700090937701A0937801B093790180917A01DF
:1011800090917B01A0917C01B0917D010196A11D00
:10119000B11D80937A0190937B01A0937C01B09361
:1011A0007D01BF91AF919F918F913F912F910F90B2
:1011B0000FBE0F901F90189526E8230F0296A11DD1
:1011C000B11DD2CF1F920F920FB60F9211248F93A1
:1011D0009F938091E1009091E100937F9093E100D3
:1011E00083FF0FC01092E90091E09093EB00109202
:1011F000EC0092E39093ED0010923E0298E0909301
:10120000F00082FF22C093E09093E9009091F200F9
:10121000992319F09AE39093E8009091740199232F
:1012200041F090917401915090937401911101C01B
:101230005D9A90913D02992341F090913D02915029
:1012400090933D02911101C0289A84FF18C08091AB
:10125000E2008E7E81608093E2008091E1008F7ECB
:101260008093E100809173018E7E80618093730191
:101270009F918F910F900FBE0F901F90189580FF38
:10128000F7CF8091E2008E7E80618093E2008091B2
:10129000E1008E7E8093E100809173018E7E8160FB
:1012A000E5CF1F920F920FB60F921124CF92DF92CB
:1012B000EF92FF920F931F932F933F934F935F9360
:1012C0006F937F938F939F93AF93BF93EF93FF930E
:1012D000CF93DF93CDB7DEB76C97DEBFCDBF109253
:1012E000E9008091E80083FF25C068E0CE014596C3
:1012F0000E94B50382EF8093E8008D8987FF39C093
:101300009091E80090FFFCCF982F907609F034C1BF
:101310009E894F89588D2F89F88C911131C0803862
:1013200061F5809172018093F1001092F1008EEFCF
:101330008093E8006C960FB6F894DEBF0FBECDBF69
:10134000DF91CF91FF91EF91BF91AF919F918F91DD
:101350007F916F915F914F913F912F911F910F91CD
:10136000FF90EF90DF90CF900F900FBE0F901F90E7
:1013700018959EEF9093E800C7CF1092F100D5CF5B
:10138000913059F48111D3CF4130510581F68091CC
:1013900072018D7F80937201CACF933049F481111D
:1013A000C6CF4130510519F6809172018260F2CFAB
:1013B000953041F48091E80080FFFCCF20682093B5
:1013C000E300B5CF963009F0A9C00B8D1C8D22E04B
:1013D0001092E9001092700110926F01F2122EC06B
:1013E00010926E0110926D010E9484031F8299E099
:1013F0009983FA8291E09E8390EA98879AEF998781
:1014000020916F0130917001275F3F4F3C832B8308
:101410008D831092E9001092700110926F01109369
:101420006E0100936D0149E050E0BE016F5F7F4F98
:1014300080E00E945E030E94840379CF10936E01C6
:1014400000936D010E943701DC0112960D911C91F1
:101450000115110509F451C1D801ED91FC910480E9
:10146000F581E02DBE016B5E7F4FC80109950097A5
:1014700009F03EC1F80100851185EACFF3E0FF12C3
:101480000EC08F89882309F440C0823061F440E89F
:101490006BE08CE191E00E942B03811148CF81E247
:1014A0008093EB0047CF813029F440E86BE080E186
:1014B00091E0F1CF833099F70E943701DC01129659
:1014C000ED90FC908E010F5F1F4F6801E114F10455
:1014D00079F0D701ED91FC910680F781E02DB801FC
:1014E000C7010995080F111DF701E084F184EECFC3
:1014F000D8011C92F60101900020E9F73197BF0155
:101500006C197D0940E0C601C6CF6AEF70E0FB01AF
:10151000449150E080E80E945E0309CF973009F4BF
:10152000BECF983021F481E08093F10000CF993054
:1015300009F0FDCE837009F0B2CFE5E1F1E081E082
:1015400031E096E32191222371F08093E9003093FA
:10155000EB00DF0111972C912093EC009093ED00AC
:101560008F5F873079F78EE78093EA001092EA0068
:101570008F8980933E02DBCE8B8D9C8D1092E9008B
:101580001092700110926F0190936E0180936D0123
:10159000898D811192C08E899D89913A49F4813259
:1015A00009F07DCF47E050E064E071E080E0B3CF28
:1015B000913209F074CF833269F48F89988DB0E04D
:1015C000A0E08093000190930101A0930201B093E9
:1015D0000301ADCE803269F48091E80082FFFCCF38
:1015E00067E084E091E00E94B5038BEF8093E80010
:1015F0009ECE823209F09BCE8F8980930B01EEEF55
:10160000FFE7859194918B3F9C4D51F1E0E0F8E02C
:101610008091040190910501A0910601B09107010C
:10162000803B9440A105B105F1F480910B0180FD50
:101630001AC0EE3F8AE0F80789F587E797E79183BC
:101640008083809160008093710188E19BE00FB6F8
:10165000F894A895809360000FBE9093600067CEC9
:10166000EEEFFAE0D5CF808191818737974709F077
:101670005ECEA89580916000886180936000809123
:10168000710180936000EE3F2AE0F20789F08091BB
:10169000FE0A9091FF0A9183808349CE80819181D7
:1016A0008737980751F29093FF0A8093FE0AC5CFBF
:1016B0001092FF0A1092FE0A3ACE0E943701DC0116
:1016C00012960D911C910115110509F4E8CED8016F
:1016D000ED91FC910190F081E02DBE016B5E7F4F9A
:1016E000C8010995811123CEF80100851185EBCF42
:1016F000181619060CF41BCED2CEF1E0FF12BECEA6
:101700006EEF70E004CFEFE3F2E01382128288EE16
:1017100093E0A0E0B0E084839583A683B7832FE1B4
:1017200031E031832083EBE4F2E013821282848380
:101730009583A683B78381E391E0918380838FEFC4
:101740009FEF95878487EBE9F2E01382128283E4AE
:1017500091E09183808387E2848380E1818782E0C6
:10176000828713860895789484B5826084BD84B599
:10177000816084BD85B5826085BD85B5816085BD8C
:1017800080916E00816080936E0010928100809144
:1017900081008260809381008091810081608093CC
:1017A0008100809180008160809380008091910011
:1017B000826080939100809191008160809391007C
:1017C000809190008160809390008091C10084603E
:1017D0008093C1008091C10082608093C10080919C
:1017E000C10081608093C1008091C30081608093BB
:1017F000C3008091C00082608093C0008091C200CD
:1018000081608093C20080917A00846080937A0026
:1018100080917A00826080937A0080917A00816062
:1018200080937A0080917A00806880937A00109289
:101830003E0210927201109273018091D700816074
:101840008093D70080EA8093D80089B5806189BDF4
:1018500089B5826089BD09B400FEFDCF61E070E00A
:1018600080E090E00E94CB028091D8008F7C806164
:101870008093D8008091E000807F8093E000809189
:10188000E1008E7E8093E1008DE08093E200559A26
:10189000209A8FEF9FEF909358028093570261E058
:1018A00083E00E94750260E083E10E94750282E09D
:1018B0000E9407071092C0011092BF011092C2014E
:1018C0001092C10110920B0281E080930D021092E0
:1018D0000C0261E082E00E94040261E083E00E9469
:1018E00004028091B9008E7F8093B9008091B90085
:1018F0008D7F8093B90088E48093B80085E480935D
:10190000BC008CE791E09093E4018093E3018DE7C4
:1019100091E09093E8018093E7011092A0028091FA
:10192000A5020E940707C8E0C093A60260E08BE909
:1019300092E00E94F504C093A60260E08BE992E079
:101940000E94F50480E00E94D60667E571E08BE90D
:1019500092E00E945D058DEA882E80E0982E0AE0D4
:1019600010E095E8A92E91E0B92E2BE3E22E2FE1AD
:10197000F22E30E0C32E30E0D32EF401849120917A
:101980007B00982F990F990F90722F7D922B909337
:101990007B008770806480937C0080917A008064F3
:1019A00080937A0080917A0086FDFCCF9091780038
:1019B00080917900892798278927B8010E942210F1
:1019C000072E000C880B990B0E94FB0E2B013C018B
:1019D0004092690150926A0160926B0170926C01B1
:1019E00081E00E94D60623E333E343E251E4C301DE
:1019F000B2010E94510EAB01BC0122E08BE992E0E2
:101A00000E94B80523E333E343E251E460916901A6
:101A100070916A0180916B0190916C010E94510E4E
:101A2000AB01BC0122E08BE492E00E94B8056DE5B9
:101A300071E08BE492E00E945D0560916901709114
:101A40006A0180916B0190916C010E94C30E2B0181
:101A5000EB0161E083E00E947502209719F560E0D8
:101A600083E00E9404026EE170E080E090E00E945A
:101A7000CB0240E061E08BE992E00E94BF06C70123
:101A80000197F1F780E00E94D60660E671E08BE9ED
:101A900092E00E945D05C114D10409F46ECF0E944A
:101AA00000006BCFCF3FD10511F461E0D9CFF50134
:101AB0008491EFEFE80FEF3008F07CC0F0E0ED59D3
:101AC000F24F0C945810720D770D7C0D860D900D11
:101AD000DA0DDA0DDA0D9A0DA40DAE0DB80DC50DA7
:101AE000DA0DCD0D84B5806884BD47BCBCCF84B50C
:101AF000806284BD48BCB7CF8091800080688093AD
:101B000080005092890040928800ADCF8091800083
:101B100080628093800050928B0040928A00A3CF15
:101B20008091800088608093800050928D00409268
:101B30008C0099CF809190008068809390005092A3
:101B40009900409298008FCF80919000806280939E
:101B5000900050929B0040929A0085CF8091900017
:101B600088608093900050929D0040929C007BCFB3
:101B70008091C00080688093C0008091C0008F7BFE
:101B80008093C0004092CF006ECF8091C0008062F1
:101B90008093C0004092D00066CF8091C2008860E0
:101BA0008093C2008091C2008B7F8093C2004092DC
:101BB000D20059CFC038D1050CF077CF50CF505854
:101BC000BB27AA270E94F70D0C94710F0E94630F88
:101BD00038F00E946A0F20F039F49F3F19F426F480
:101BE0000C94600F0EF4E095E7FB0C945A0FE92F6C
:101BF0000E94820F58F3BA1762077307840795078C
:101C000020F079F4A6F50C94A40F0EF4E0950B2EB9
:101C1000BA2FA02D0B01B90190010C01CA01A0013E
:101C20001124FF27591B99F0593F50F4503E68F199
:101C30001A16F040A22F232F342F4427585FF3CFDA
:101C4000469537952795A795F0405395C9F77EF4AB
:101C50001F16BA0B620B730B840BBAF09150A1F0F4
:101C6000FF0FBB1F661F771F881FC2F70EC0BA0F7A
:101C7000621F731F841F48F4879577956795B79502
:101C8000F7959E3F08F0B0CF9395880F08F09927FD
:101C9000EE0F9795879508950E94360F08F481E01E
:101CA00008950E94650E0C94710F0E946A0F58F0FF
:101CB0000E94630F40F029F45F3F29F00C945A0F03
:101CC00051110C94A50F0C94600F0E94820F68F3C1
:101CD0009923B1F3552391F3951B550BBB27AA27E5
:101CE00062177307840738F09F5F5F4F220F331F1F
:101CF000441FAA1FA9F335D00E2E3AF0E0E832D0E7
:101D000091505040E695001CCAF72BD0FE2F29D0E9
:101D1000660F771F881FBB1F261737074807AB07BB
:101D2000B0E809F0BB0B802DBF01FF2793585F4F30
:101D30003AF09E3F510578F00C945A0F0C94A50F81
:101D40005F3FE4F3983ED4F3869577956795B79512
:101D5000F7959F5FC9F7880F911D9695879597F91D
:101D60000895E1E0660F771F881FBB1F6217730796
:101D70008407BA0720F0621B730B840BBA0BEE1FAB
:101D800088F7E09508950E94CA0E6894B1110C94EA
:101D9000A50F08950E948A0F88F09F5798F0B92FD9
:101DA0009927B751B0F0E1F0660F771F881F991F90
:101DB0001AF0BA95C9F714C0B13091F00E94A40F7F
:101DC000B1E008950C94A40F672F782F8827B85F8F
:101DD00039F0B93FCCF3869577956795B395D9F7E8
:101DE0003EF490958095709561957F4F8F4F9F4FF2
:101DF0000895E89409C097FB3EF4909580957095FE
:101E000061957F4F8F4F9F4F9923A9F0F92F96E946
:101E1000BB279395F695879577956795B795F111BB
:101E2000F8CFFAF4BB0F11F460FF1BC06F5F7F4F58
:101E30008F4F9F4F16C0882311F096E911C077236A
:101E400021F09EE8872F762F05C0662371F096E873
:101E5000862F70E060E02AF09A95660F771F881F42
:101E6000DAF7880F9695879597F90895990F0008E6
:101E7000550FAA0BE0E8FEEF16161706E807F9075C
:101E8000C0F012161306E407F50798F0621B730BF7
:101E9000840B950B39F40A2661F0232B242B252B78
:101EA00021F408950A2609F4A140A6958FEF811D1B
:101EB000811D089597F99F6780E870E060E00895BC
:101EC0009FEF80EC089500240A9416161706180652
:101ED0000906089500240A9412161306140605062E
:101EE0000895092E0394000C11F4882352F0BB0FBF
:101EF00040F4BF2B11F460FF04C06F5F7F4F8F4F22
:101F00009F4F089557FD9058440F551F59F05F3F5C
:101F100071F04795880F97FB991F61F09F3F79F00B
:101F200087950895121613061406551FF2CF46958D
:101F3000F1DF08C0161617061806991FF1CF86950F
:101F40007105610508940895E894BB2766277727F3
:101F5000CB0197F908950E94360F08F48FEF08958A
:101F60000E94C30F0C94710F0E94630F38F00E94FF
:101F70006A0F20F0952311F00C945A0F0C94600F07
:101F800011240C94A50F0E94820F70F3959FC1F34A
:101F9000950F50E0551F629FF001729FBB27F00D17
:101FA000B11D639FAA27F00DB11DAA1F649F66276C
:101FB000B00DA11D661F829F2227B00DA11D621FBB
:101FC000739FB00DA11D621F839FA00D611D221F75
:101FD000749F3327A00D611D231F849F600D211D59
:101FE000822F762F6A2F11249F5750409AF0F1F0DC
:101FF00088234AF0EE0FFF1FBB1F661F771F881F45
:1020000091505040A9F79E3F510580F00C945A0F13
:102010000C94A50F5F3FE4F3983ED4F38695779533
:102020006795B795F795E7959F5FC1F7FE2B880FEA
:10203000911D9695879597F908950E94360F880B04
:10204000990B089597FB072E16F4009407D077FD9F
:1020500009D00E945E1007FC05D03EF49095819552
:102060009F4F0895709561957F4F0895A1E21A2EB4
:10207000AA1BBB1BFD010DC0AA1FBB1FEE1FFF1F2C
:10208000A217B307E407F50720F0A21BB30BE40B7C
:10209000F50B661F771F881F991F1A9469F76095C3
:1020A0007095809590959B01AC01BD01CF0108957D
:1020B000EE0FFF1F0590F491E02D0994AA1BBB1BA6
:1020C00051E107C0AA1FBB1FA617B70710F0A61B38
:1020D000B70B881F991F5A95A9F780959095BC0159
:0820E000CD010895F894FFCF33
:1020E800FFFFFFFF00E100000000000000004000CB
:1020F8001400540000C1808100000000000000D5D9
:1021080001A8015A057E01A1018E017F010000008E
:10211800007404EF0395048A04DB049904B70400EF
:102128000000007307C2035A0559056E616E006905
:102138006E66006F766600506F776572000D0A0054
:0821480057454C434F4D450083
:00000001FF
